:03000000020100FA
:03000B00020050A0
:09005000758C3C758AB605693215
:10010000756900D2AFD2A9758901758C3C758AB624
:1001100031925102510251027590FFD28C75A000AC
:100120005102510274075590F56574099565FB7489
:100130008031CF510290030031EF5102EB31FD7459
:100140000031FD74C031CF510290030D31EF5102E7
:10015000EB75F002A475F00A8431FDE5F031FD7411
:100160000031FD740031FDEB75F008A4FC74509C67
:10017000FDECB569FDB294B295B296B2977569007F
:10018000EDB569FDB294B295B296B2977569000269
:10019000011D75A038C280C281D2825102C2825133
:1001A0000275A00CC280C281D2825102C282510269
:1001B00075A001C280C281D2825102C282510275F1
:1001C000A006C280C281D2825102C282510222F5AF
:1001D000A0C280C281D2825102C282510222F5A005
:1001E000D280C281D2825102C2825102510222C007
:1001F000E0E493600531DEA380F7D0E022343031B3
:10020000DE22C000C001780179FFD9FED8FAD00102
:03021000D00022F9
:1003000044757479204379636C653A200050756CAC
:0B03100073652057696474683A200090
:00000001FF
