:030000000209E012
:0C09E000787FE4F6D8FD758120020A271C
:100B6900496E70757420706C6561736500496E76A5
:0B0B7900616C696420696E7075740087
:040BDA00C101C10094
:100AB400E4F5A0C282C280C2817F38FE120B847F1B
:100AC400047E00120B497F067E00120B847F047E95
:100AD40000120B497F0C7E00120B847F047E0012EF
:100AE4000B497F017E00120B847F047E00120B49A8
:070AF4007F807E00020B84ED
:040B45007FE87E03C4
:100B4900E4FDFCC3ED9FEC9E5015E4FBFA0BBB00E2
:0F0B5900010ABA01F8BB7EF50DBD00010C80E466
:010B6800226A
:100800008E0E8F0F8B108A1189127C277D10120893
:10081000F3EF24301208BFAE0EAF0F7C277D10120D
:1008200008F37E037FE8CFCDCFCECCCE1208F3EF16
:100830002430AB10AA11A9129000011208D1AE0EFB
:10084000AF0F7C037DE81208F37E007F64CFCDCF2D
:10085000CECCCE1208F3EF2430AB10AA11A912901F
:1008600000021208D1AE0EAF0F7C007D641208F3B7
:100870007E007F0ACFCDCFCECCCE1208F3EF24304E
:10088000AB10AA11A9129000031208D1AE0EAF0F3F
:100890007C007D0A1208F3ED2430AB10AA11A912D6
:0608A0009000040208D1E3
:100B8400C280C281D2828FA07F0A7E00120B49C22A
:020B94008222BB
:100B9600D280C281D2828FA07F0A7E00120B49C208
:020BA6008222A9
:100AFB008B0B8A0C890DAB0BAA0CA90D1208A660E7
:100B0B0013050DE50D7002050C14F91208A6FF1262
:050B1B000B9680E222B0
:100BA800758920758DF3759850D28ED2ACD2AF224C
:080BD2008F993001FDC20122E0
:100B20008B138A148915AB13AA14A9151208A66091
:100B3000130515E5157002051414F91208A6FF1225
:050B40000BD280E2224F
:090BC800E4FF3000FDC200AF990A
:010BD1002201
:03002300020BB815
:100BB800309905C299D20132309804C298D20032D5
:100A6C00FBE434FFFA7C007D05AF03FE1208F38F24
:100A7C00097C007D05AF03AE021208F38D0AAF09A5
:020A8C008F0BCE
:100A8E00E4F9E9D3950B501D900000B2947F017EDE
:100A9E0000120B49A3E582B4E8F1E583B403EC122E
:050AAE000B450980DD8D
:010AB3002220
:08094800C294120AB4120BA8BC
:10095000120AB47F827E00120B847BFF7A0B7969C6
:10096000120AFBD29C120BC88F08C29C120AB4E573
:1009700008C394414007E508D3945A40167F817E0E
:1009800000120B847BFF7A0B7976120AFB7FD07EF4
:10099000078032E508C3944B5015E50824BF120ABE
:1009A0006C120B45AF0A120A8C7FE87E038016E5B5
:1009B00008644B7016FF120A8C120B457F02120A54
:1009C0008C7FE87E03120B49020950E50824BE1211
:0D09D0000A6C120B45AF0A120A8C120B457F
:0309DD00020950BC
:1009EC00020948E493A3F8E493A34003F68001F2D0
:1009FC0008DFF48029E493A3F85407240CC8C3330C
:100A0C00C4540F4420C8834004F456800146F6DFDA
:100A1C00E4800B0102040810204080900BDAE47E85
:100A2C00019360BCA3FF543F30E509541FFEE493CF
:100A3C00A360010ECF54C025E060A840B8E493A396
:100A4C00FAE493A3F8E493A3C8C582C8CAC583CAC1
:100A5C00F0A3C8C582C8CAC583CADFE9DEE780BE79
:010BDE000016
:1008A600BB010689828A83E0225002E722BBFE0250
:0908B600E32289828A83E4932283
:1008BF00BB010689828A83F0225002F722BBFE0118
:0208CF00F32212
:1008D100F8BB010DE58229F582E5833AF583E8F05D
:1008E100225006E92582C8F622BBFE05E92582C809
:0208F100F222F1
:1008F300BC000BBE0029EF8DF084FFADF022E4CCE9
:10090300F875F008EF2FFFEE33FEEC33FCEE9DECB1
:10091300984005FCEE9DFE0FD5F0E9E4CEFD22EDF7
:10092300F8F5F0EE8420D21CFEADF075F008EF2F41
:10093300FFED33FD4007985006D5F0F222C398FD32
:050943000FD5F0EA22CF
:00000001FF
